:020000040800F2
:10000000C8070020050100081B1A0008B7180008DF
:10001000191A0008990A0008C71E0008000000000D
:100020000000000000000000000000005F1D00084C
:100030009B0A0008000000003D1A0008611D00082E
:100040001F0100081F0100081F0100081F01000810
:100050001F0100081F0100081F0100081F01000800
:100060001F0100081F0100081F0100081F010008F0
:100070001F0100081F0100081F0100081F010008E0
:100080001F0100081F0100081F0100081F010008D0
:100090001F0100081F0100081F0100081F010008C0
:1000A0001F0100081F0100081F0100081F010008B0
:1000B0001F0100081F0100081F0100081F010008A0
:1000C0001F0100081F0100081F010008A91A0008ED
:1000D000B51A00081F0100081F0100081F010008D1
:1000E0001F0100081F0100081F010008DFF810D0E1
:1000F00000F0A6FC004800479D230008AFF30080F5
:10010000C80700200648804706480047FEE7FEE78C
:10011000FEE7FEE7FEE7FEE7FEE7FEE7FEE7FEE7B7
:10012000A91D0008ED000008202A04DB203A21FA6E
:1001300002F00021704721FA02F3D040C2F1200200
:100140009140084319467047A0F14101192900D890
:100150002030704740EA01039B0703D009E008C93B
:10016000121F08C0042AFAD203E011F8013B00F87C
:10017000013B521EF9D27047D2B201E000F8012BC8
:10018000491EFBD270470022F6E710B513460A4617
:1001900004461946FFF7F0FF204610BD30B505466E
:1001A0002A460B4612F8010B13F8014B08B1A04286
:1001B000F8D01CB1002802D06D1CF1E7284630BDF4
:1001C000421C10F8011B0029FBD1801A704710B5A2
:1001D000002200E0521C835C8C5CA34201D1002B06
:1001E000F8D1D8B2E1B2401A10BD30B505460020B2
:1001F000034600E05B1C934205D2EC5CC85C201A0D
:1002000001D1002CF6D130BD2DE9FF4F087883B025
:100210009946FF2805D0491C2D2804D00024002031
:1002200008E000200BE00124F9E700EB800003EB7D
:100230004000491C0B78FF2BF7D104B1404200234A
:100240000293147819461D462D2C01D02B2C04D175
:10025000521C2D2C13D000240294AA461478FF2C93
:100260000FD00A25A3FB057801FB05814FF0000C98
:1002700003FB0C11521CE3194AEB0101EEE70124C8
:10028000EAE7814453EA010002D019F5C87F06DA93
:1002900003980021C0E9001107B0BDE8F08F0025E8
:1002A000AE4E2F46DFF8B882184600F0A0FBCDE92D
:1002B0000001B9F1000002DAC9F1000400E00446CF
:1002C0000023A74A1AEB030B42EB045A12E0E007A3
:1002D00007D02A4633463846414600F0A7FA07467B
:1002E00088462A4633461046194600F09FFA0546CE
:1002F0000E466410002CEAD1DDE90001B9F1000FCF
:100300005A46534606DA00F003FB3A46434600F0ED
:10031000FFFA05E000F08AFA3A46434600F086FA12
:10032000029A0AB181F00041039AC2E90001B3E7E1
:100330002DE9FF4F1F468DB0D7E901464FF0FF383A
:100340002E2045464FF000090B90B9696D1C0E98A0
:100350008847396A824688470028F6D1BAF1FF3FBC
:100360000AD024F4D064002E11DDBAF12B0F08D08E
:10037000BAF12D0F0BD102E0404611B08DE744F4E5
:100380008064B9696D1C0E9888478246761E69465E
:10039000600501D52D2000E02B208DF8000001F133
:1003A000010B0DF1200809E0B9696D1C0E98884712
:1003B00082460F9844F40074761E0560002E02DD1C
:1003C000BAF1300FF0D00B998A453ED144F0800449
:1003D00006E00F99681CA9F1010944F40074086053
:1003E000B9696D1C761E0E98884782463028F0D079
:1003F0002BE00B998A4505D1200603D444F08004F4
:10040000761E18E0504601F090FE08B30DF113017E
:10041000761E44F400748B4508D2AAF130000BF824
:10042000010B200607D5A9F1010003E0200602D444
:1004300009F101008146A00502D50F99681C0860EA
:10044000B9696D1C0E9888478246002ED1DC53E0B6
:10045000002E51DDBAF1650F02D0BAF1450F4BD134
:10046000A00549D5B9696D1C24F44074761E0E9818
:1004700088478246002E0CDD2B2804D0BAF12D0FC0
:1004800007D144F48074B9696D1C0E988847824680
:10049000761EE00501D52D2100E02B2108F8011B77
:1004A000CDF82C8021E00DF12901761E44F4007472
:1004B00088450CD2AAF1300010F0FF0088F8000047
:1004C00002D10B99884509D908F1010806E0E00539
:1004D00001D5244801E042F20F708146B9696D1CD4
:1004E0000E98884782460F980560002E04DD50461E
:1004F00001F01BFE0028D6D1F9690E988847FF202D
:100500008BF8000088F800000020069007904B460A
:100510006A4608A906A8FFF777FEA00502D46FF087
:1005200001002AE714F0240F0AD0E00714D1DDE916
:1005300006123868031D3B600068C0E900120BE03A
:10054000DDE9060100F05FFA0146E00704D13868F2
:10055000021D3A600068016028460EE70000144062
:100560000000F03FF1D8FFFF70B5C1F30A5201F06F
:1005700000450024C1F3130140F2FF3341F4801120
:100580009A4201DA002070BD40F233439A42A2F24F
:10059000334203DC5242FFF7C7FD00E090402C439A
:1005A000F1D0404270BD000030B5041E71F100046E
:1005B00004DB4FF00044404264EB0101141E73F170
:1005C000000405DB1C464FF00043524263EB04037A
:1005D0008B4208BF824230BD30B5041E71F1000469
:1005E00004DB4FF00044404264EB0101141E73F140
:1005F000000405DB1C464FF00043524263EB04034A
:10060000994208BF904230BD202A04DB203A00FA0C
:1006100002F1002070479140C2F1200320FA03F359
:10062000194390407047426842B1016811F8013B9C
:1006300023B1521EC0E90012184670470121C16063
:10064000881E704742685AB1C368016843B983681D
:100650008B4205D0491E521CC0E900120020704791
:100660004FF0FF30704700000FB4002300B589B091
:100670000CA900910B996FF00042CB601E4B0693C2
:100680001E4B07930423CDE901321D4A089202460E
:100690006B460020FFF74CFE09B05DF814FB70B507
:1006A00086B006464FF0FF300091CDE901010020F1
:1006B00015460C4604903246694604A8FFF7D4FF5D
:1006C00002460498211825B108B1084600E02046EA
:1006D0002860049800280DD0002A02DD0098884286
:1006E00008D0081B0094CDE901043246694604A8ED
:1006F000FFF7BAFF06B070BD2706000845060008E0
:10070000650A00080029A8BF7047401C490008BFBF
:1007100020F00100704710B4B0FA80FC00FA0CF031
:1007200050EA010404BF10BC704749B1CCF1200469
:1007300021FA04F411FA0CF118BF012121430843F6
:10074000A3EB0C01CB1D4FEA00614FEA102042BF22
:10075000002010BC704700EBC35010440029A4BF18
:1007600010BC7047401C490008BF20F0010010BCBD
:10077000704710B5141E73F1000408DA401C41F1F3
:10078000000192185B411A4301D120F0010010BD15
:100790002DE9F04D92469B4611B1B1FA81F202E08B
:1007A000B0FA80F220329046FFF72EFF04460F4643
:1007B00040EA0A0041EA0B0153465A46084313D067
:1007C000114653EA010019D0C8F140025046FFF724
:1007D000ABFC05460E46504659464246FFF714FF0D
:1007E000084305D0012004E020463946BDE8F08DDD
:1007F0000020054346EAE0762C4337430A98630518
:10080000E40AA0EB08000022FD0A44EA47540A303B
:1008100002D500200146E9E7010510196941DDE92B
:10082000084500196941BDE8F04DA2E72DE9FE4FEA
:1008300081EA030404F0004421F0004100944FF0E9
:10084000000B23F0004350EA01045ED052EA030497
:100850005BD0C3F30A54C1F30A552C44A4F2F33419
:100860000194A0FB0254C1F3130141F48011C3F3BE
:10087000130343F4801301FB024400FB034E840A7C
:10088000970A44EA815447EA8357A4FB0768029514
:100890008D0A05FB07854FEA932C04FB0C542705B2
:1008A000029D4FEA065847EA1637B5EB08056EEB8E
:1008B000070C870E920E47EA811742EA8312A7FBC4
:1008C0000201B6EB0B0164EB00042B0D43EA0C3381
:1008D0005E1844EB1C50DA465146E7FB0201C5F3B3
:1008E00013044FEA0B3343EA14534FEA0432019CDA
:1008F00043EA0603A4F10C040294009CCDE900B481
:10090000FFF746FF03B0BDE8F08F00200146F9E78E
:100910002DE9F04D81EA030404F0004B21F000457D
:1009200014464FF0000A23F0004150EA050220D09F
:1009300054EA01021DD0C5F30A570246C5F313035A
:10094000C1F31300C1F30A5640F4801543F4801339
:10095000A7EB0608101BD64608F2FD3873EB05001E
:1009600002D308F1010801E092185B41B8F1000FD1
:1009700003DA00200146BDE8F08D00204FF480111D
:10098000064684460EE0171B73EB050705D3121BC2
:1009900063EB050306434CEA010C49084FEA3000BB
:1009A00092185B4150EA0107EDD152EA030012D0E0
:1009B00082EA040083EA0501084305D0101BAB411D
:1009C00006D20122002306E000224FF0004302E09D
:1009D0006FF0010253101AEB06004CEB085110EBBC
:1009E0000A0041EB0B01BDE8F04DFFF7C2BE0EB5AA
:1009F00040F2334202920022CDE900221346FFF773
:100A0000C7FE03B000BD01F0004330B421F0004147
:100A100050EA010206D00A0DA2F56072C1F313017B
:100A2000002A02DC30BC00207047440F44EAC104B5
:100A3000C100E01830BC00EBC250FFF763BE0000FD
:100A4000064C074D06E0E06840F0010394E807001B
:100A500098471034AC42F6D3FFF74CFBF42A000859
:100A6000142B0008C0B24FF4F05100F001B80000A0
:100A70007F2801D9002208E0064A02EB5002C00795
:100A8000127800D1120902F00F02012090400840B4
:100A900070470000B22A0008FEE7704710B590F8D2
:100AA00021100024022903D00421816301243DE0A8
:100AB00001680A6822F00E020A6001680A6822F0E2
:100AC00001020A601A4A0168914201D1012121E024
:100AD000174A1432914201D110211BE0144A2832E6
:100AE000914201D1891515E0114A3C32914201D160
:100AF00089140FE00E4A5032914202D14FF48031F6
:100B000008E00B4A6432914202D14FF4801101E0B7
:100B10004FF08071064A083A5160012180F8211097
:100B2000002180F82010416B01B18847204610BD9C
:100B30000800024070B5044600F0F6F80546601C57
:100B400002D004480078044400F0EEF8401BA042B4
:100B5000FAD370BD1C0000202DE9F84FDFF890A1FA
:100B600000220AF1040B144601274FF00F090BF184
:100B7000040E00BF0B6807FA04F52B40AB4274D19A
:100B8000DFF870C14E68A6EB0C0866452BD00DDC73
:100B9000032E34D005DC36B3012E19D0022E2FD10E
:100BA0001BE0112E16D0122E2AD119E0B8F5881F9D
:100BB00019D006DCB8F5803F15D0B8F5801F1FD1DD
:100BC00011E0B8F5001F0ED0B8F5041F18D10AE0E7
:100BD000CA6815E0CA68121D12E0CA6808320FE040
:100BE000CA680C320CE08A682AB1012A4FF0080268
:100BF00003D0456104E0042202E0056100E0002228
:100C0000FF2B01D8064601E000F104064FEA8405F7
:100C100001D9A5F12005D6F800C009FA05F82CEA9B
:100C2000080C02FA05F54CEA050CC6F800C04D6840
:100C3000ED0057D5304DAE6946F00106AE61AD69A5
:100C400024F0030605F0010500952C4D06EB050C7C
:100C5000DCF80850A6074FEA167809FA08F6B543FB
:100C6000274EB04202D1002610E03BE0254EB042B4
:100C700001D101260AE0244EB04201D1022605E04E
:100C8000224EB04201D1032600E0042606FA08F6FF
:100C90002E43CCF808604D68DAF80060ED03554645
:100CA00001D51E4300E09E432E604D68DBF80060D6
:100CB000AD035D4601D51E4300E09E432E604D68A6
:100CC000DEF80060ED02754601D51E4300E09E434C
:100CD0002E604D68AD020E4D2E6801D51E4300E01A
:100CE0009E432E60641C102CFFF444AFBDE8F88FC7
:100CF00000040140000011100010024000000140FB
:100D000000080140000C01400010014000140140A7
:100D10000C040140C2684A40C26070470AB10161D8
:100D200070470904FBE70000014880687047000035
:100D30001C000020024881680278114481607047DD
:100D40001C000020074810B5016841F01001016047
:100D5000032000F073F8002000F006F800F024F8FB
:100D6000002010BD0020024070B50D4D04464FF428
:100D70007A712878B1FBF0F00A490968B1FBF0F00C
:100D800000F0B5FC48B9102C07D200222146501EB5
:100D900000F034F800206C6070BD012070BD0000D0
:100DA0001C000020280000200C4808B5816941F093
:100DB00001018161816901F001010091C16941F086
:100DC0008051C161C06900F08050009004484168C2
:100DD00021F0E06141F00071416008BD0010024067
:100DE0000000014000F01F020121914040098000F5
:100DF00000F1E020C0F8001170470000F0B40E4B85
:100E00001B680C46C3F30223C3F10705042D00D968
:100E10000425191D072901D2002300E0DB1E01264D
:100E200006FA05F1491E214099409E40761E164063
:100E30003143F0BC00F0F2BD0CED00E0064900F0DB
:100E4000070208684FF6FF03184040EA0220034AF1
:100E500010430860704700000CED00E00000FA0548
:100E60002DE9F047DFF8548105460E46D8F800001A
:100E700000F00700B0420CD2D8F8001021F00701B2
:100E80003143C8F80010D8F8000000F00700B04265
:100E90006FD128684A4C810712D5400703D5606896
:100EA00040F4E06060602878000703D5606840F493
:100EB000605060606068A96820F0F00008436060DE
:100EC0002878C00744D06868012816D02168022815
:100ED00016D0890700294CDA616821F0030101432B
:100EE0006160FFF721FF6968074641F288300129F8
:100EF0000ED00229814618D026E021688903E9E74F
:100F00008901E7E7FFF710FFC11B494501D918E048
:100F100081466068C0F381000128F3D118E000BF6A
:100F2000FFF702FFC11B49450BD86068C0F3810081
:100F30000228F5D10CE000BFFFF7F6FEC11B4945C2
:100F400002D90320BDE8F087606810F00C0FF3D1E0
:100F5000D8F80010404601F00701B1420BD90168F2
:100F600021F0070131430160006800F00700B04242
:100F700001D00120E6E72878400705D56068E968D8
:100F800020F4E060084360602878000706D56068B8
:100F9000296920F4605040EAC100606000F016F852
:100FA0006168084AC1F30311515CC84006490860F2
:100FB0000020FFF7D9FE0020C4E700000020024017
:100FC00000100240A22A00082800002012A185B0CB
:100FD0000FC98DE80F0014A0144A006804905168EE
:100FE000134801F00C03042B10D0082B0ED1C1F3D1
:100FF0008343C9031DF803000AD5516804AAC1F34D
:101000004041515C0A4A5043B0FBF1F005B07047D3
:1010100008494843FAE700000203040506070809E7
:101020000A0B0C0D0E0F1010010200000010024000
:1010300000127A0000093D002DE9F84F04460078BF
:10104000B94DC00748D06868C0F38100012807D0B7
:101050006868C0F38100022809D16868C00306D51A
:101060002868800338D5606800286FD034E0606855
:10107000B0F5803F0BD010B1B0F5A02F11D028688B
:1010800020F480302860286820F4802002E028685E
:1010900040F480302860606888B1FFF745FE06465E
:1010A00009E0286840F480202860F0E7FFF73CFE64
:1010B000801B642875D828688003F7D50CE0FFF7FB
:1010C00033FE064605E000BFFFF72EFE801B6428B6
:1010D000F0D828688003F7D42078944E80074FF02A
:1010E00001094FF000083BD5686810F00C0F07D0DD
:1010F0006868C0F38100022809D16868C00306D47B
:101100002868800714D5206901281FD110E02069C4
:10111000B0B1C6F80090FFF707FE074605E000BF34
:10112000FFF702FEC01B0228C4D828688007F7D545
:101130002868616920F0F80040EAC10028600FE0EB
:10114000C6F80080FFF7F0FD074606E0E9E000BFC3
:10115000FFF7EAFDC01B022823D828688007F7D4D0
:10116000207800072CD57248A169D9B1C0F8009049
:10117000FFF7DAFD074604E0FFF7D6FDC01B0228A3
:101180000FD8686A8007F7D56A484FF4FA510068AB
:10119000B0FBF1F0009000BF0098411E0091FAD220
:1011A0000EE080E0C0F80080FFF7BEFD074604E0D7
:1011B000FFF7BAFDC01B022875D8686A8007F7D40C
:1011C0002078400760D5E8690027C00008D4E869A6
:1011D00040F08050E861E869012700F080500090FD
:1011E00055480168C90513D40168834641F48071EC
:1011F0000160FFF799FD824606E000BFFFF794FD0E
:10120000A0EB0A0064284ED8DBF80000C005F5D535
:10121000E06801280AD008B1052813D0286A20F018
:1012200001002862286A20F0040002E0286A40F0E9
:1012300001002862E06841F2883B98B1FFF774FD35
:1012400082460BE0286A40F004002862EEE700BF07
:10125000FFF76AFDA0EB0A0159455AD8286A8007B2
:10126000F6D50CE0FFF760FD824605E0FFF75CFD78
:10127000A0EB0A0159454CD8286A8007F6D41FB163
:10128000E86920F08050E861E06988B36968C1F3DB
:101290008101022945D00228C6F8608004D0FFF7FA
:1012A00043FD044638E034E0FFF73EFD074604E026
:1012B000FFF73AFDC01B02282BD828688001F7D41D
:1012C000206AB0F5803F05D16868A16820F400303D
:1012D00008436860D4E908010843696821F474117F
:1012E00008436860C6F86090FFF71EFD044606E0FC
:1012F00015E000BFFFF718FD001B022809D8286879
:101300008001F7D50BE000BFFFF70EFD001B0228A0
:1013100002D90320BDE8F88F28688001F4D40020AA
:10132000F8E70120F6E7000000100240000042420A
:1013300080044242280000200070004070470000F6
:1013400038B504460068426881684B0605D4CB076F
:1013500003D0530601D5216C04E08B0707D5130693
:1013600005D5616C01B02046BDE83040084711F05A
:10137000600F3FD093063DD54B060AD594F8513007
:10138000032B34D0636D43F004036365C368836843
:101390000093890609D5616D41F00101616581689D
:1013A0000091016821F040010160606D002821D0AA
:1013B0002068416821F0E0014160012084F851007B
:1013C000900718D02068416821F0030141600C4D5E
:1013D000E06C18B14563E06CFFF760FBA06C00287F
:1013E00008D04563A06CBDE83840FFF757BBC16823
:1013F0008068009038BD2046FFF7A0FF38BD000090
:101400007B1C000870B5040005D00025A56294F887
:10141000510010B104E0012070BD204600F034F806
:10142000022084F851002068016821F04001016029
:10143000D4E901010843D4E9031211430843616967
:101440000843218B01F400710843E1690843216AD4
:101450000843A16A084321680860A069042101EAE1
:101460001040616A0843216848602168E06A0861A9
:101470002068C16921F40061C1616565012084F8BB
:101480005100002070BD000070B586B000210091B1
:101490000191029103912D4A01682D4802240325F0
:1014A000914225D1816941F480518161816901F4C2
:1014B00080510491816941F0040181618069254E68
:1014C00000F004000490B020009069463046FFF719
:1014D00043FB4020CDE90004694603953046FFF701
:1014E0003BFB002211462320FFF788FC232029E044
:1014F000194A914228D1C16941F48041C161C16951
:1015000001F480410491816941F0080181618069A1
:10151000124E00F0080004904FF4304000906946ED
:101520003046FFF719FB4FF48040CDE900046946CF
:1015300003953046FFF710FB002211462420FFF7E9
:101540005DFC2420FFF74EFC06B070BD003001406A
:10155000001002400008014000380040000C01402B
:10156000F0B400248568134604261DB94268B2F51C
:10157000827F0DD090F85020012A0FD0012280F8F0
:10158000502090F851700022012F0AD0022431E03F
:1015900080F85160F0BC0A4600F056B80220F0BC5A
:1015A000704771B16BB180F8516042658163838788
:1015B000C38702638286C2864264C16819B10F493B
:1015C00002E0012416E00E490164B5F5004F04D194
:1015D00001680B6823F480430B6001684B6843F09B
:1015E00060034B6001680B685B0603D40B6843F033
:1015F00040030B6080F850202046D0E78B1C000889
:10160000AB1C000810B500680B49884205D100F0FA
:1016100017FA012209490A4809E00A4988420AD111
:1016200000F028FA054906480122491C5838BDE84F
:101630001040FFF795BF10BD0038004006000020A5
:10164000A000002000300140F0B590F85050002478
:10165000012D0CD0012580F8505090F851500026F3
:101660004768012D0BD0B7F5827F06D101E002203B
:10167000F0BD87680FB9042D01D002242AE031B1F2
:101680002AB123B190F85150012D02D004E0012479
:1016900020E0052580F85150466501638386C386A6
:1016A00082638387C387C16819B10C4901640C49FF
:1016B00002E00C4901640C49416401684A6842F047
:1016C000E0024A6001680A68520603D40A6842F0E0
:1016D00040020A6080F850602046F0BDC11A000840
:1016E0001F1B0008F11A00084F1B0008704710B5B7
:1016F000401EB0F1807F01D3012010BD4FF0E024E7
:1017000060610F21601700F089F90020A0610720B7
:101710002061002010BD30B590F83C20012A20D077
:10172000012280F83C20022380F83D3003685C6889
:1017300024F070045C6003685C680D682C435C6096
:1017400003689C6824F080049C6003689C68496876
:101750000C439C6080F83D20002180F83C10084636
:1017600030BD022030BD10B5040003D094F83D0018
:1017700010B107E0012010BD002084F83C00204695
:1017800000F00CF8022084F83D00211D206800F0D4
:101790002FFB012084F83D00002010BD08B5006833
:1017A0000649884208D10648816941F40061816197
:1017B000806900F40060009008BD0000002C01402A
:1017C0000010024070B5044690F83C00012817D084
:1017D000012584F83C50022084F83D00206882688E
:1017E00022F0770222F47F4282600868502837D0C6
:1017F0000DDC202859D005DC88B3102841D151E0F8
:10180000022070BD302853D040283AD13FE06028F4
:101810002ED070280BD0B0F5805F03D0B0F5005FFC
:101820002FD110E02068816821F0070115E0CB6816
:10183000D1E90121206800F011FB2168886840F09F
:10184000770088601DE0CB68D1E90121206800F0B5
:1018500005FB2068816841F48041816011E01EE051
:10186000CA684968206800F00BFB5021206806E038
:10187000CA684968206800F014FB6021206800F005
:10188000F7FA84F83D50002084F83C0070BDCA6827
:101890004968206800F0F4FA40212068EFE7002151
:1018A0002068ECE710212068E9E720212068E6E7BE
:1018B00030212068E3E7FEE72DE9F04186B00024FF
:1018C00024480094019402940394816941F010012A
:1018D0008161816901F010010491816941F0200169
:1018E0008161816901F020010491816941F0040165
:1018F0008161816901F004010491816941F008016D
:1019000081618069144F00F008004FF46045049035
:10191000002229463846FFF701FADFF8408000220E
:1019200007214046FFF7FAF90095022601250396A4
:10193000CDE9015469463846FFF70EF90720CDE995
:101940000005CDE9024669464046FFF705F906B0B5
:10195000BDE8F08100100240001001400008014085
:101960000A48094910220160002141608160C1607C
:1019700001614161C0E906120162416281620A218E
:10198000C162FFF73FBD0000003001404800002069
:101990000A48094910220160002141608160C1604C
:1019A00001614161C0E906120162416281620A215E
:1019B000C162FFF727BD000000380040A0000020F2
:1019C00010B586B000241348009401940294039447
:1019D00004940F49059401604FF4FA51C0E90114D1
:1019E00040F2F311C0E9031444618461FFF7BBFEC8
:1019F0004FF48050009069460648FFF7E3FE0494D8
:101A000004A904480594FFF786FE06B010BD000047
:101A1000002C0140F8000020FEE770470907090E7E
:101A2000002806DA00F00F0000F1E02080F8141D15
:101A3000704700F1E02080F8001470477047000004
:101A400070B50A4D0A4CA9790A2904D0E8682154D6
:101A5000401CE86070BD064800F036FA00210846D8
:101A6000E9602154401C4628FBDB70BD00000020CB
:101A70003801002070B50A4D0A4CE9790A2904D0D2
:101A8000A8682154401CA86070BD064800F084FA84
:101A900000210846A9602154401C4628FBDB70BD8C
:101AA000000000207E0100200148FFF749BC000033
:101AB000480000200148FFF743BC0000A0000020C0
:101AC0000168C968826B1180816B891C8163C18F39
:101AD000491EC187C18F002909D101684A6822F0D7
:101AE00040024A60C18E002901D100F057B870470A
:101AF00001680B7B816B4A1C82630B70C18F491E8E
:101B0000C187C18F002909D101684A6822F06002AB
:101B10004A60C18E002901D100F040B87047016BC6
:101B200002680988D160016B891C0163C18E491E5E
:101B3000C186C18E002909D101684A6822F080025D
:101B40004A60C18F002901D100F028B87047016BAD
:101B50004A1C0263026809781173C18E491EC1864E
:101B6000C18E002909D101684A6822F080024A60CA
:101B7000C18F002901D100F011B8704738B50B466C
:101B8000009204460022802100F09EF8002804D034
:101B9000606D40F020006065032038BD38B5044614
:101BA000214845F6C0510068B0FBF1F0642148437C
:101BB0000090FFF7B9F802462068416821F0200143
:101BC00041600098411E009104D2606D40F02000F9
:101BD000606503E0206880688007F2D564212046B4
:101BE000FFF7CCFF18B1606D40F020006065A06881
:101BF00018B92068C16880680090616D012029B122
:101C000084F851002046FFF799FB38BD94F8511035
:101C100084F851000429204602D0FFF767FD38BD43
:101C2000FFF7F0FC38BD00002800002008B501686F
:101C30004A6822F060024A604168B1F5827F0BD1A8
:101C40008168B1F5004F02D0B1F5806F04D1016811
:101C50000A6822F040020A60816819B90168CA68FE
:101C600089680091012180F85110416D11B1FFF791
:101C700065FB08BDFFF7C6FC08BD10B5406A002132
:101C8000C187C186FFF75AFB10BD0168C968826B26
:101C90001180816B891C8163C18F491EC187C18FEF
:101CA000002901D1FFF7C2BF704701680B7B816B30
:101CB0004A1C82630B70C18F491EC187C18F0029E6
:101CC00001D1FFF7B3BF70472DE9F0411D4617461C
:101CD0000E460446DDF8188035E0681C33D02DB17F
:101CE000FFF722F8A0EB0800A8422CD32068416837
:101CF00021F0E00141606068B0F5827F0BD1A068FF
:101D0000B0F5004F02D0B0F5806F04D120680168B3
:101D100021F040010160A06AB0F5005F0AD120689F
:101D200001684DF6FF72114001602068016841F4BE
:101D300000510160012084F85100002084F8500017
:101D40000320BDE8F0812068806836EA000004D0F6
:101D50000020B842C1D10020F3E70120F9E7704725
:101D6000FEF7E8BF10B590B028216846FEF70BFAE1
:101D700014210AA8FEF707FA02200090012004901F
:101D800010200024059007946846FFF755F90F20AE
:101D9000CDE90A040C940D9400210AA80E94FFF7D3
:101DA0005FF810B010BD00000D48016841F001015E
:101DB000016041680B4A1140416001680A4A1140C4
:101DC0000160016821F480210160416821F4FE0175
:101DD00041604FF41F0181600449C00308607047EF
:101DE000001002400000FFF8FFFFF6FE08ED00E0E3
:101DF000F0B50268164B174C174D4FF080479842CC
:101E000005D0B84203D0A04201D0A84203D122F0AD
:101E100070064A683243984205D0B84203D0A042C7
:101E200001D0A84203D122F44074CA68224322F0B0
:101E300080044A69224302608A68C2620A68826238
:101E4000984201D10969016301214161F0BD00009F
:101E5000002C0140000400400008004010B58468D8
:101E600042EA032224F47F440A432243826010BDE5
:101E7000826822F070020A4342F0070181607047D5
:101E800010B5036A046A24F001040462846924F032
:101E9000F00444EA021423F00A020A438461026255
:101EA00010BD10B5036A23F0100303628369046A4E
:101EB00023F4704343EA023224F0A00343EA011101
:101EC0008261016210BDFEE72DE9F04100F07EF96C
:101ED0002B4C002820614DD02AA100F069F9002583
:101EE000DFF8A4800126F8B126A1206900F060F98E
:101EF000006926A1FEF752F9B70330B10122394635
:101F00004046FEF70BFFA5700EE01EA1206900F011
:101F10004FF900691EA1FEF741F928B100223946A8
:101F20004046FEF7FBFEA6701AA1206900F040F9BA
:101F300000B318A1206900F03BF9006913A1FEF776
:101F40002DF94FF4004730B1012239464046FEF7E3
:101F5000E5FEE5700EE00FA1206900F029F90069A7
:101F60000BA1FEF71BF928B1002239464046FEF7C7
:101F7000D5FEE6702069BDE8F04100F0F5B800003C
:101F800000000020544231000010014030000000E9
:101F900031000000544232002DE9F04100F016F902
:101FA000294C0028206149D028A100F001F9002522
:101FB000274F0126F0B125A1206900F0F9F800694A
:101FC00024A1FEF7EBF830B1012211463846FEF7A6
:101FD000A5FE25710EE01DA1206900F0E9F8006959
:101FE0001DA1FEF7DBF828B1002201213846FEF7DB
:101FF00095FE267119A1206900F0DAF8F0B117A159
:10200000206900F0D5F8006912A1FEF7C7F830B1D9
:10201000012202213846FEF781FE65710EE00FA114
:10202000206900F0C5F800690BA1FEF7B7F828B1E8
:10203000002202213846FEF771FE66712069BDE874
:10204000F04100F091B8000000000020544233003D
:10205000000801403000000031000000544234000C
:1020600030B528B1144C031F002021680A4605E052
:10207000084630BD9A4203D810465268002AF9D16A
:10208000002800D041680BD00468A3EB0005A542EE
:1020900004D11B681C440346046002E0436000E076
:1020A00023603AB11C68D51AA54203D115682C44A7
:1020B0001C6052685A6030BD400000202DE9F04796
:1020C00082460F4C10480D4E0E4F001B4FF000087B
:1020D00020F007054FF0010900221146504600F09C
:1020E00035F9002802D1306810B10020BDE8F08732
:1020F0003C60C4E90058C6F80090EDE744000020B9
:10210000CC01002040000020C803002002E008C8E5
:10211000121F08C1002AFAD170477047002001E061
:1021200001C1121F002AFBD1704730380A2801D2A2
:10213000012070470020704710B530B1036823B10B
:10214000D0E90121914201D204E0002010BD491CD8
:10215000816020B1914202D25C5C202CF7D991427F
:10216000F4D1491E816010BD70B504460F4E19E0D0
:10217000A0892568C0050AD4A06820B1FFF7F4FF44
:10218000A089C00503D4206908B171688847A08977
:10219000800503D4206A08B17168884771682046B9
:1021A00088472C46002CE3D170BD0000340000208D
:1021B000002200F08EB810B501682820884704007E
:1021C00002D02821FDF7DFFF204610BD0022114676
:1021D00000F06EB82DE9F04788B00F4604469A46E5
:1021E00016461C216846FDF7CEFF2F480025002C1F
:1021F0000560456055D08146E7B3CDE900470295BB
:10220000D9E90212D9F810000491CDE9052009F1AD
:102210000800FFF7D0FF5FEA00082BD000986F4658
:1022200008B1029808B100270BE00198042808D9EA
:1022300003221EA10098FDF7D8FF10B90298C01C18
:1022400002903846FFF778FF0146404600F0FEFA5C
:1022500068B1BAF1000F13D06846FFF76DFFDDE9F2
:102260000101814203D202990098405C40B140468E
:10227000FFF77AFFDDE9011088420AD205460BE03C
:102280001EB10299009808443060404608B0BDE88D
:10229000F087081E00D0451E0EB160193060C9E9F4
:1022A00000450020F2E700002C000020EFBBBF003B
:1022B00070B515460E46040009D0FDF781FF411C9C
:1022C0002B4632462046BDE87040FFF783BF002012
:1022D00070BD2DE9F0418846A8B3B8F1000F33D0A6
:1022E00084680AB90AE024686CB3216A59B340468D
:1022F000FDF76DFF0028F6D120E024681CB3266AA4
:102300005FEA0805F9D0002EF7D0B54218D002E0F8
:1023100098B16D1C761C2878FDF716FF07463078BB
:10232000FDF712FF87422878F2D0FDF70DFF054632
:102330003078FDF709FF8542DFD124B1206A10B162
:102340002046BDE8F081FFE70020FAE72DE9F041E3
:102350000B3020F00706104D19E02068B04215D36D
:10236000B0420AD9871B201DD4F80480FDF7F2FE85
:10237000A019C0E90078286004E060682860201D8A
:10238000FDF7E8FE201D2660BDE8F081251D2C68C4
:10239000002CE2D10020F7E740000020FEF7D2FC3D
:1023A000FFF7E0FCFFF788FAFFF7DAFAFFF7F0FA39
:1023B000FFF706FB1B4C012291032046FEF7AEFC03
:1023C0000122D1032046FEF7A9FC174D0122114638
:1023D0002846FEF7A3FC012202212846FEF79EFCB8
:1023E000012204212846FEF799FC012255032946C3
:1023F0002046FEF793FC01220C490D48FFF7B0F888
:102400000A490B480122491E5830FFF7A9F84FF43A
:10241000FA7629462046FEF77DFC3046FEF78AFB19
:10242000F7E700000010014000080140070000200D
:10243000480000202DE9F04107460025C8680C46F9
:102440002E46B0F57A7F5BD2401CE0602168A06820
:10245000095C5B2954D1401CA0602046FFF76CFE4C
:102460004CB1D4E90110884203D22268125C5D2A83
:1024700033D0884203D3A068401EA06040E0401ED5
:1024800004F11008A0604046FFF795FE98B30DB325
:10249000306046600646A068401CA0602046FFF7FA
:1024A0004BFE2146304600F0D1F930B32046FFF70D
:1024B00043FE14B3D4E90110884203D22168095CB9
:1024C0002C29E0D06268904217D22168085C5D2810
:1024D00013D102E005462E46DDE7E068401EE060CD
:1024E00005B16E602020C7E90250A068401CA060C2
:1024F0000120BDE8F081FFE715B12846FFF734FE63
:102500000020F6E7034610B500200246995CA1F1D1
:102510003004092C01D830380AE0A1F14104052C1F
:1025200001D8373804E0A1F16104052C08D85738E8
:102530000844032A00D20001521C042AE6D310BD2D
:10254000002010BD2DE9F04192B04FF00005064685
:102550000C004FF02E03284610953CD02168D1B3D3
:102560006A4627E027683944415C34291BD00ADCDD
:10257000A1F12B07092F23D2DFE807F01522151749
:1025800022151515150038290DD006DC35290AD07D
:10259000362908D0372913D105E0392903D0452938
:1025A00001D065290CD1115400E01354401C3F2880
:1025B00006D22CB1A168D4F804C00F186745D1D356
:1025C0001554904610A9104600F0F4F90F461099E2
:1025D0000546884503D1002012B0BDE8F081C6E968
:1025E0000657114A114B28463946FDF7F5FF02D828
:1025F0006FF000400DE000220D4B28463946FDF7F4
:10260000D3FF02D84FF0004003E028463946FDF7DB
:10261000ABFF70610820F060109AA168A2EB08007F
:102620000844A0600120D7E70000C0FFFFFFDF41A2
:102630000000E0C12DE9F04107460026C8680C46BD
:102640003546B0F57A7F78D2401CE060002C74D01B
:10265000D4E90110884270D22168095C7B296CD1D1
:10266000401CA0602046FFF767FDD4E901108842B6
:1026700003D22268125C7D2A4CD08842A0F101006E
:10268000A0605AD204F110084046FFF794FDE8B369
:10269000F6B1286045600546A068401CA060204651
:1026A000FFF74AFD2146284600F049F878B3204656
:1026B000FFF742FD28692862002028613CB3D4E975
:1026C0000110884236D22168095C3A2932D102E0F1
:1026D00006463546E0E7401CA0602046FFF72CFD8B
:1026E0002146284600F0B2F888B12046FFF724FDC5
:1026F000D4E90110884203D22168095C2C29C3D097
:102700006268904216D22168085C01E011E011E095
:102710007D280FD1E068401EE06006B17560402062
:10272000C7E90260A068401CA0600120BDE8F081FC
:1027300003E016B13046FFF717FD0020F6E72DE95C
:10274000F84380468B6808684FF00009C418CDF83C
:10275000009008680E46651CC15C641C22296ED17D
:102760000022716808E0BCF15C0F04D17F1C8F422D
:1027700065D2521C641C641C271A8F4204D294F840
:1027800000C0BCF1220FEED1271A8F4257D2217818
:10279000222954D11844201A801A3169401C8847D4
:1027A00007004CD0009737E029785C2905D00098C5
:1027B0006D1C00F8011B00902EE00220611B012916
:1027C00039DB6A78662A14D008DC222A12D02F2A34
:1027D00010D05C2A0ED0622A2DD108E06E2A0ED0CD
:1027E000722A0ED0742A0ED0752A24D10DE0082248
:1027F00000E00C22009901F8012B00910BE00A2265
:10280000F8E70D22F6E70922F4E76A462146284652
:1028100000F0DEF878B10544A542C5D3009981F8EF
:1028200000901021C8E903173068201A401CB060DE
:102830000120BDE8F88317B171693846884715B1A2
:102840003068281AB0600020F3E7000070B50C0073
:1028500005465ED0206800285BD0A16863680A1D29
:102860009A4205D80844042231A1FDF7BEFC78B392
:10287000A0686268411D0126914206D821680522A0
:1028800008442DA1FDF7B1FC28B3A0686268011DC2
:10289000914206D821680422084429A1FDF7A5FC2D
:1028A000E8B1D4E90101814203D22268525C222AB4
:1028B0001DD0814221D22268525C2D2A02D0303AAA
:1028C000092A1AD821462846BDE87040FFF73ABECB
:1028D0000420E86006E0EE60A068401D04E00220ED
:1028E0006E61E860A068001DA060012070BD2146F7
:1028F0002846BDE87040FFF722BF814203D222681C
:10290000525C5B2A07D0814203D22068405C7B285E
:1029100007D0002070BD21462846BDE87040FFF773
:1029200089BD21462846BDE87040FFF783BE000000
:102930006E756C6C0000000066616C7365000000D1
:1029400074727565000000002DE9F04704008A46A6
:1029500016D054F8047CD4F800903E1F564500D998
:1029600056462046FFF77CFB054688463246214600
:102970005046FFF7EBFC40B1C0F80090BDE8F0878F
:10298000BDE8F0470846FFF799BB44E9017955B126
:1029900029686A18211F8A4202D9611B091F296010
:1029A000C5F80480EAE7024AC2F80080E6E70000C2
:1029B0004000002000B583B00A460021CDE9001197
:1029C00001466846FDF76BFEDDE9000103B000BD7E
:1029D0002DE9F04705460027481B1646894606287C
:1029E0005DDBA81CFFF78EFD0446A0F55C414FF4AB
:1029F0008060814253D3A4F55841824651451AD292
:102A0000A81DA9EB00014FF00C08062947DB01784F
:102A10005C2944D14178752941D1801CFFF772FDB2
:102A2000A0F55C4151453AD2C4F3090161F39F20FE
:102A300000F5803002E04FF006082046802801D2E1
:102A4000012110E0B0F5006F02D20221C0270AE098
:102A5000B0F5803F02D20321E02704E0B0F5881FE3
:102A60001DD20421F0274A1E08E000BF00F0BF037A
:102A7000346843F080038009A354521E12F0FF0211
:102A8000F4D1012901D9384301E000F07F00326818
:102A900010703068084430604046BDE8F087002080
:102AA000FBE700000000000000000102030406072D
:102AB0000809DDDDDDDDDCBBBBDDDDDDDDDDDDDD34
:102AC000DDDD988888888888888877777777778821
:102AD0008888855555566666666666666666666863
:102AE0008888833333322222222222222222222861
:102AF000888D0000142B0008000000204800000012
:102B00000C2100085C2B0008480000208007000012
:102B10001C21000808080000000000000000000060
:102B200000000000000000000000000000000000A5
:102B300001000000100000000000000000A24A0494
:102B40000000000000000000BD2000086120000817
:0C2B5000492900080000000000000000FF
:04000005080000ED02
:00000001FF
